:020000040800F2
:100000000000052405430008FD2E0008FF2E00080F
:10001000012F0008032F0008052F00080000000032
:10002000000000000000000000000000072F000892
:10003000092F0008000000000B2F00080D2F0008FA
:100040005943000859430008594300085943000820
:100050005943000859430008594300085943000810
:10006000594300085943000859430008152F000858
:10007000252F0008352F0008452F0008552F0008B0
:10008000652F0008752F000859430008852F0008C8
:10009000952F0008A52F0008B52F00085943000828
:1000A00059430008594300085943000859430008C0
:1000B0005943000859430008C52F00085943000858
:1000C00059430008594300085943000859430008A0
:1000D000D52F0008E52F0008F52F0008053000088F
:1000E000153000085943000800000000594300087B
:1000F00029300008594300085943000839300008E6
:100100005943000859430008493000085943000882
:100110005943000859300008693000087930000858
:100120008930000899300008A9300008B93000086B
:10013000C9300008594300085943000859430008D2
:1001400000000000000000000000000000000000AF
:10015000D9300008594300085943000859430008A2
:1001600059430008594300085943000859430008FF
:1001700059430008E9300008594300080000000016
:100180005943000859430008F93000085943000852
:1001900059430008594300085943000859430008CF
:1001A0005943000859430008594300080000000063
:1001B00059430008594300085943000859430008AF
:1001C00059430008594300080000000000000000E7
:1001D000000000000000000059430008000000007B
:1001E000000000000000000000000000000000000F
:1001F00000000000000000005943000859430008B7
:100200005943000859430008000000005943000802
:10021000594300085943000859430008594300084E
:1002200059430008000000000931000800000000E8
:1002300059430008594300080000000059430008D2
:10024000594300085943000859430008594300081E
:10025000594300085943000859430008594300080E
:1002600059430008594300085943000859430008FE
:100270005943000859430008594300080000000092
:1002800059430008594300085943000859430008DE
:100290000000000059430008193100080000000068
:1002A0000000000059430008594300085943000862
:1002B0002931000859430008594300083931000822
:0C02C00049310008594300085943000868
:1002D0000348044B834202D0034B03B118477047D5
:1002E0009C0100249C0100240000000005480649F0
:1002F0000B1AD90F01EBA301491002D0034B03B134
:10030000184770479C0100249C0100240000000055
:1003100010B5064C237843B9FFF7DAFF044B13B14D
:100320000448AFF300800123237010BDA001002416
:1003300000000000446E010808B5044B1BB10449DD
:100340000448AFF30080BDE80840CFE7000000009C
:10035000A4010024446E010810EE103A184A23F05C
:10036000004393421BDDB3F1FF4F02DB30EE400A46
:10037000704700B583B0684600F0C2FB00F0030090
:100380000128DDED010A9DED000A0CD0022812D0F3
:1003900070B1012001F0A6F803B05DF804FBDFEDB9
:1003A000090A00F0E3BC01F09DF8B1EE400AF3E762
:1003B00000F0DCFCF0E700F0D9FCB1EE400AEBE71E
:1003C000D80F493F0000000010EE103A194A23F000
:1003D000004393421CDDB3F1FF4F02DB30EE400AD5
:1003E000704700B583B0684600F08AFB00F0030058
:1003F0000128DDED010A9DED000A0ED0022813D080
:1004000070B100F0B3FCB1EE400A03B05DF804FB3C
:10041000DFED090A002001F065B800F0A7FCF4E761
:10042000012001F05FF8F0E7012001F05BF8B1EE88
:10043000400AEAE7D80F493F0000000008B52DED5B
:10044000028BB0EE408A00F08BF8144B93F9003029
:100450000133F0EE408A0FD0B4EE488AF1EE10FA84
:100460000AD6B0EE480A01F059F9F7EE007AB4EE78
:10047000E70AF1EE10FA04DCB0EE680ABDEC028B7C
:1004800008BD01F0A1FCBDEC028B034621221A60DD
:100490000348BDE8084001F08FB900BF0000002408
:1004A000E473010808B52DED028BB0EE408A00F030
:1004B0007BF9144B93F900300133F0EE408A0FD0F2
:1004C000B4EE488AF1EE10FA0AD6B0EE480A01F00E
:1004D00025F9F7EE007AB4EEE70AF1EE10FA04DC43
:1004E000B0EE680ABDEC028B08BD01F06DFCBDECFE
:1004F000028B034621221A600348BDE8084001F040
:100500005BB900BF00000024E473010800F052BA98
:1005100008B52DED028BB0EE408A00F023FC0E4BA7
:1005200093F9003001330BD0B4EE488AF1EE10FAA3
:1005300006D6DFED0A8AB4EEE88AF1EE10FA02D4AC
:10054000BDEC028B08BD01F03FFC88EEA80ABDECB3
:10055000028B2123036008BD00000024000000007E
:1005600008B510EE102A22F00043B3F17E5F2DEDA6
:10057000028B12D00ADCB3F17C5F19DAB3F10C5FA5
:100580006CDCBDEC028B9FED770A08BD70EE407A03
:1005900087EEA70ABDEC028B08BDBDEC028B9FED78
:1005A000720ADFED727A002AD8BFB0EE670A08BD82
:1005B000002AC0F29080F7EE008A38EEC00AB6EE4C
:1005C000008A20EE088AB0EE480A00F0CBFBDFED8F
:1005D000687A9FED687A9FED686ADFED685ADFED13
:1005E000686AA8EE277ADFED677AA7EE086AE8EE78
:1005F000257AE6EE086ADFED645A9FED647AE7EE4D
:10060000885AA6EE887ADFED627A10EE103AE5EEAF
:10061000887A23F47F6323F00F03B0EE476A9FEDDF
:100620005D7AF0EE676AA6EE087A07EE903AB0EED1
:10063000486AE6EE888AA7EEE76A70EE276A27EE38
:10064000088A86EE267AC8EE286ABDEC028BA0EEF8
:10065000267A37EE870A30EE000A08BD20EE007ACF
:10066000DFED437A9FED436ADFED436A9FED435A26
:10067000DFED435AA7EE276ABDEC028BE6EE076A70
:10068000DFED407A9FED406AE7EE057AE6EE875AA5
:10069000A7EE876A9FED3D5ADFED3D7ADFED3D6ABB
:1006A000A5EE875AE6EE077AE5EE076AF7EE005AFE
:1006B000E7EE875A26EE877A9FED376ADFED377AC5
:1006C000C7EE256AB0EE467AA0EE667A30EE470AAB
:1006D00037EEC00A08BDB7EE007A30EE070AF6EE34
:1006E000007A60EE277ADFED226A9FED226ADFED65
:1006F000224ADFED225A9FED225A9FED268AA7EE6D
:10070000A66ADFED206AE6EE274AE7EEA56ADFED8E
:100710001E5A9FED1E6AA4EEA75AE6EEA75ADFED19
:100720001C6AA5EE276AE5EEA76AA6EE278AA6EE62
:10073000A77A28EE278AF0EE478AB0EE670A00F023
:1007400011FB88EE286ADFED167AB0EE407AE7EE0C
:10075000067A9FED140A77EE877AF0EE006AA7EE2C
:10076000E60A17E7DB0FC93F00000000DB0F494036
:1007700008EF1138047F4F3A461124BD2EC69D3D27
:10078000A80A4E3E613330BF2D57014090B0A6BE3F
:1007900039D119C0ABAA2A3E6821A233DA0FC93F6A
:1007A0006821A2B3DA0F494038B510EE105A25F08F
:1007B0000044B4F17E5F2DED048B00F085807ADC7F
:1007C000B4F17C5F0FDAB4F1485F80F29C80DFED1A
:1007D000697A70EE277AB7EE007AF4EEC77AF1EE16
:1007E00010FA00F38D8000F099FFF7EE007A37EEF3
:1007F000C00AB6EE008A20EE088A9FED5F7ADFED30
:100800005F6A9FED5F6A9FED5F5ADFED5F5ADFED34
:100810005F8AE8EE076A9FED5E7AA8EE067A9FEDA2
:100820005D6AA6EE885AA7EE086A9FED5B7ADFED57
:100830005B6AE5EE085AA6EE087AE5EE886AE7EE0E
:10084000087AE6EE888AB0EE480AB0EE679A00F0C1
:1008500089FA534B9C4268EE888A42DC10EE103ACB
:1008600023F47F6323F00F0306EE903AA6EEE68AA8
:1008700070EE267A88EE895AC8EE274A9FED497AAB
:10088000DFED497AB0EE006AA4EEC67A30EE000AD7
:10089000F0EE675AE6EEC65A90EE057A37EE657AC4
:1008A00037EEC77A002D0ADCBDEC048BB1EE477A37
:1008B000B0EE470A38BD70EE407A87EEA77ABDECFD
:1008C000048BB0EE470A38BD9FED367ADFED377AFC
:1008D00020EE077ABDEC048BA0EE277AB0EE470A33
:1008E00038BD88EE896A9FED327ADFED307AA0EE6E
:1008F000060AF0EE006AA0EE267A37EEC77AD1E754
:10090000B0EE407ADBE760EE007A9FED1B7ADFED18
:100910001B6A9FED1C6ADFED1A5A9FED1B5AE7EE2A
:10092000876ABDEC048BA6EEA76A9FED197ADFED0E
:10093000196AA7EEA57AA6EE275AE7EE276ADFED39
:10094000175A9FED156A9FED117AE5EE275AA6EE2C
:10095000A76AA5EEA77AF7EE006AE6EE276A67EEC9
:10096000277AB0EE407A87EEA66AA0EE067AB0EE5D
:10097000470A38BDCAF2497108EF1138047F4F3A6F
:100980002EC69D3D461124BDA80A4E3EABAA2A3E66
:10099000613330BF2D57014039D119C090B0A6BE88
:1009A0009999793F2EBD3BB3DB0F493FDB0FC93F20
:1009B0002EBD3B3310B582B0CDED010A019B23F073
:1009C0000042B2F1FF4FF0EE407A30DC10EE100A38
:1009D00020F00041B1F1FF4F29DCB3F17E5F42D03E
:1009E0009C1704F0020444EAD07431B37AB3B2F134
:1009F000FF4F40D0B1F1FF4F29D08A1AB2F1F45F16
:100A00004FEAE25134DA002B42DA3C3140DA9FED12
:100A1000340A012C4ED0022C43D064B19FED317AC0
:100A2000DFED317A30EE070A30EE670A03E09DED24
:100A3000017A37EE270A02B010BD022C10D09FEDCC
:100A40002B0A032C18BFB0EE670A02B010BD9FED51
:100A5000280ADFED287A0028B8BFB0EE670AEAE777
:100A60009FED210AE7E702B0BDE8104000F082BD2B
:100A70009FED1F0ACDE7B1F1FF4F04F1FF3420D005
:100A8000022C26D81C4B03EB840494ED030AD2E716
:100A90009DED017A87EE870A00F040FE00F06AFDC6
:100AA000B7E79FED107ADFED107A30EE070A37EEE8
:100AB000C00AC0E710EE103A03F1004300EE103A0E
:100AC000B9E7022C08D80C4B03EB840494ED000A20
:100AD000B1E79FED030AAEE79FED080AABE700BF61
:100AE000000000002EBDBB33DB0F4940DB0F49C0C7
:100AF000DB0FC93FDB0FC9BF406F0108DB0F493F68
:100B000070B510EE103A894A23F00044944286B042
:100B1000054670DD864A944210EE106A22DC002BF6
:100B2000DFED847A844A24F00F04B0EE407A40F37B
:100B3000E480944270EE677A09BFDFED806A9FED32
:100B4000807A9FED807A77EEE67A012077EEC76AA9
:100B500077EEE67AC5ED006A77EEC77AC5ED017AE1
:100B600006B070BD784A944254DDB4F1FF4F49DAC3
:100B7000E215863AA4EBC25307EE903ABDEEE77A4F
:100B8000DFED726AB8EEC77A77EEC77A8DED037A39
:100B900067EEA67ABDEEE77AB8EEC77A77EEC77A47
:100BA0008DED047A67EEA67AF5EE407AF1EE10FA52
:100BB000CDED057A40F09080B5EE407AF1EE10FA76
:100BC00014BF02230123624901910221009103A86D
:100BD000294600F04DF9002EC2DA95ED007AD5EDE8
:100BE000017AB1EE477AF1EE677A85ED007AC5EDCC
:100BF000017A4042B4E7002285ED000A42600020FD
:100C000006B070BD70EE407A0020C5ED017AC5EDEA
:100C1000007AA5E700F082FD9FED4E7A9FED456AD0
:100C2000F6EE007AE0EE077A9FED457AFDEEE77A80
:100C300017EE900AF8EEE76A1F28A6EEC60A66EEDF
:100C4000877AB1EE666A1EDC434A411E24F0FF0338
:100C500052F82120934216D030EE677A85ED007A63
:100C600030EE470A002E30EE670A85ED010ABFF626
:100C700077AFB1EE477AB1EE400A85ED007A85EDA7
:100C8000010A40426CE730EE677AE21517EE103A3F
:100C9000C3F3C753C3EBD454082CDFDDDFED277A51
:100CA0009FED287AF0EE405AE6EE275A30EE650ABC
:100CB000A6EE270AF0EE407AD6EE877A35EEE77A8E
:100CC00017EE103AC3F3C753D21A192A06DCB0EE56
:100CD000650A85ED007AC3E7032374E79FED1F7A69
:100CE0009FED1F5AB0EE650AA6EE070A75EEC07AB0
:100CF000E6EE077AD6EE857AAEE7944270EE277A72
:100D000009BFDFED0E6A9FED0E7A9FED0E7A77EE4A
:100D1000A67A4FF0FF3077EE876A77EEE67AC5ED78
:100D2000006A77EE877AC5ED017A19E7D80F493F57
:100D3000E3CB1640800FC93FD00FC93F0044353781
:100D40004344353708A3852E800F49430000804374
:100D5000D86F010884F9223F586F010800A3852E3F
:100D600032318D24B1EEC00A704700BF10EE103A48
:100D700023F00043B3F1485F2CDAFDEEC07A17EEA2
:100D8000903A002B60D020EE007ADFED317A9FEDB3
:100D9000315ADFED315A9FED316ADFED316AA7EE4E
:100DA000275ADFED307AE7EE055AA7EE256AE7EE1F
:100DB000067AE7EE276A67EE266A60EEC00AF6EE6C
:100DC000007AE7EE260AB7EE000AD7EE270A30EEE1
:100DD000600A704720EE007ADFED1D7A9FED1D5A04
:100DE000DFED1D5A9FED1D6ADFED1D6A1E4AA7EE5D
:100DF000275A9342DFED1B7AE5EE075AA5EE876A84
:100E0000E6EE077AE7EE876A66EE876AD5DD174A6F
:100E1000934214DC03F17F4307EE903AB7EE006A89
:100E200036EE676A60EEC00AF6EE005AD7EE257A13
:100E3000E7EE260A77EEE00A36EE600A7047B6EE75
:100E4000076AF5EE027AEDE7B7EE000A704700BFD9
:100E50004ED747ADF6740F317CF293B4010DD03705
:100E6000ABAA2A3D610BB6BA9999993E0000483F5A
:100E70002DE9F04F2DED048BDBB01C46039306915A
:100E8000A24B6899089253F82150111D824604F133
:100E9000FF38C0F2A382D31E48BF131DDB1002939C
:100EA0000133DB000793DDE907239B1A0593029BBF
:100EB00015EB0801A3EB080316D401319FED947ADA
:100EC000699819441EAA002BA4BF50F8234007EECE
:100ED000904A03F10103ACBFF8EEE77AF0EE477AEF
:100EE0008B42E2EC017AEED1002DC0F2E782039B47
:100EF0001EAA02EB830446AE4FEA830C4046EF186D
:100F00000AEB8301B8F1000FDFED817A09DB22469D
:100F10005346F3EC016A32ED017A8B42E6EE877AB2
:100F2000F7D10130B842E6EC017A04F10404E9D1CA
:100F300009AB0AAF03EB850907EB8503083B9FED7F
:100F4000769ADFED748A059804930AEB0C0446AE9A
:100F500000955AAB03EB8503002D13ED140A4FEAFD
:100F6000850B16DD06EB85033A4660EE097AB0EE96
:100F7000407AFDEEE77A73ED016AF8EEE77AB34264
:100F8000A7EEE87A37EEA60ABDEEC77AA2EC017AA0
:100F9000EBD1019000F016FCB0EE408AB4EE000AEE
:100FA00028EE000A00F0C2FBF2EE007AA0EE678A9B
:100FB00001980028FDEEC89AF8EEE97A38EE678AC3
:100FC00079DD05F1FF3EC0F1080357F82E1041FA14
:100FD00003FC0CFA03F3CB1AC0F1070219EE901AC6
:100FE00043FA02F26144002A47F82E3009EE901AC3
:100FF00069DCB5EE408AF1EE10FA40F0C080009B4B
:1010000005F1FF3B5B4510DC05F18043013B07EB3D
:1010100083030021944653F804294B4541EA020119
:10102000F9D16246002940F0F280009B013B57F85D
:101030002330002B40F0E780049B4FF0010C53F865
:1010400004290CF1010C002AF9D06B1CAC449E461B
:10105000039A5119029A02EB030B0BF1804B699A28
:101060000BF1FF3B06EB83051EAB02EB8B0B03EB97
:101070008101DBED017A9FED267AF8EEE77AB8F18F
:10108000000F0BF1040BC1ED007A0A4601F10401D7
:1010900009DB534601E072ED017AF3EC016AA342E9
:1010A000A6EEA77AF7D10EF1010EE645A5EC017A7E
:1010B000DFDD65464DE740F09C806B1E57F823202E
:1010C0001212002A95DD19EE903A002D03F101036A
:1010D00009EE903A40F39881396800297FD1012DBB
:1010E00026D03B464FF0010C53F8041F00297AD05C
:1010F0000CF10103C1F580719D4247F82C1016DDFB
:1011000057F82310BB4407EB83030AE0F072010891
:1011100000000000000080430000803B0000C93F49
:101120001968C1F1FF0143F8041B5B45F8D10121A7
:1011300000280CDD012800F04881022807D105F1C4
:10114000FF3C57F82C3003F03F0347F82C30022ABD
:101150007FF44FAFB7EE000A30EE488A00293FF423
:1011600048AF0992019000F02DFB38EE408A099AB1
:101170000198B5EE408AF1EE10FA3FF440AF0292CA
:10118000DDE90732B0EE480A981A0195009D00F09B
:1011900019FB1FED207AB4EEC70AF1EE10FADDE973
:1011A0000132C0F259815FED247A059960EE277A09
:1011B0000831FDEEE77A0591F8EEE77A03F1010BCD
:1011C000A7EEC70AFDEEE77ABDEEC00A10EE101AD0
:1011D00047F8231017EE903A47F82B302EE0012302
:1011E0004FF0000C86E70CF1010CAC457FF47CAFAE
:1011F0009EE7F6EE007AB4EEE78AF1EE10FA80F29E
:10120000F2800022F5E66B1C9E469C4620E705997D
:10121000A1F1080057F82B1005902B46009D69B9E5
:1012200003F18043023B07EB8303014653F80409B3
:101230000BF1FF3B08390028F8D005910598009282
:10124000B7EE000A00F0BEFABBF1000F009AC0F240
:1012500028814FEA8B0E46AB03EB0E060EF1040C11
:101260001FED537A07EB0C03311D73ED017AF8EE95
:10127000E77ABB4267EE807A20EE070A61ED017AD9
:10128000F3D1002D1FED5B6A4FF0000420DB934883
:10129000DFED937AB0EE467A3146002303E09C42BC
:1012A00008DBB0EC017AF1EC016A01339D42E6EE15
:1012B000877AF4DA5AAB03EB8403A34543ED287A2B
:1012C000A6F1040604F1010305D0002D1C46DEDA68
:1012D000DFED837AEEE7689902291CDC002900F330
:1012E00095800FD132ABDFED7E7A9C443CED017AE4
:1012F000634577EE877AF9D10AB1F1EE677A069BFA
:10130000C3ED007A19EE903A03F007005BB0BDEC34
:10131000048BBDE8F08F689B032BF3D1BBF1000F6A
:1013200000F0D4800EF5B4736B4432A913ED287A23
:1013300001EB8B0373ED017AF0EE476A37EE277A03
:10134000994277EEC77A83ED007A77EEA67AC3EDFD
:10135000017AEFD1BBF1010F40F3B8800BF1804B64
:101360000EF5B4730BF1FF3B0DEB030E4FEA8B0B45
:101370000BF104031EED287A0B4433A873ED017AB8
:10138000F0EE476A37EE277A984277EEC77A83ED18
:10139000007A77EEA67AC3ED017AEFD10BF1080B54
:1013A000DFED4F7A01EB0B03083133ED017A9942FF
:1013B00077EE877AF9D1002A56D10699329A339B73
:1013C0000A604B60C1ED027A9CE705F1FF3C57F8DB
:1013D0002C3003F07F0347F82C30B8E6082307933E
:1013E000002302935FE519EE903A002D03F101030B
:1013F00009EE903AC8BF02223FF76EAEF7EE007AD0
:1014000037EEC88A0222F4E5002191E632A9DFED29
:10141000347A01EB830333ED017A994277EE877AD0
:10142000F9D19DED327A8ABB069BBBF1000FC3ED6B
:10143000007A77EE677A0BDD33A90123B1EC017AEC
:1014400001339B4577EE877AF8DA0AB1F1EE677AD5
:10145000069BC3ED017A55E7BDEEC00A9B4610EE30
:10146000101A47F82310E9E6DDED326A9DED337A74
:10147000069BF1EE666AB1EE477AF1EE677AC3ED4C
:10148000006A83ED017AC3ED027A3BE7069BF1EE39
:10149000676ABBF1000F77EE677AC3ED006ACBDCB9
:1014A000D4E7689B022B0DDC002B14DC7FF42AAF01
:1014B000DFED0B7A002A3FF422AF1EE7039B4FEAD1
:1014C000830C35E5689B032B7FF41CAFDFED047ABA
:1014D000002AC9D171E7DFED027AA2E700730108A3
:1014E0000000000010EE103A23F00043B3F1485F13
:1014F00004DAFDEEC07A17EE903A5BB360EE007A44
:101500009FED157ADFED155A9FED156ADFED156A2F
:10151000E7EE875A9FED147AA5EEA76A20EE275AC8
:10152000E6EE276AA6EEA77A30B9DFED106AE7EE9D
:10153000876AA6EE850A704727EE457AF6EE006ABE
:10154000A0EEA67ADFED0A6AD7EE270AE5EE260AB4
:1015500030EE600A704700BFD3C92E2F342FD7B2A8
:101560001BEF3836010D50B98988083CABAA2ABE5A
:10157000ABAA2A3E38B510EE105A25F00044B4F15B
:10158000A14FF0EE407A0BDBB4F1FF4F58DCDFEDFA
:10159000517A9FED510A002DC8BFB0EE670A38BDE1
:1015A0004E4B9C425BDCB4F1445F4CDB4FF0FF32AE
:1015B00067EEA76ADFED4A4ADFED4A5A9FED4A5AC5
:1015C0009FED4A4A26EEA67AB0EE666AE7EE245A06
:1015D000531CDFED474ADFED476AA5EE875AE7EE79
:1015E000246ADFED455ADFED454AE6EE875AA5EE5F
:1015F000074A9FED435ADFED436AA5EE875AE4EEB2
:10160000074ADFED415AE4EE876AE5EE075A66EED7
:10161000866A25EE877A37D03C4B03EB820376EE61
:10162000876A93ED000A93ED047A96EEA70A002DDF
:1016300070EE677A37EE670AB1DAB1EE400A38BD6C
:1016400030EE000A38BD9FED327A30EE077AF7EEC1
:10165000006AB4EEE67AF1EE10FAA7DD38BD00F0CC
:101660005DF82C4B9C4216DCA3F5D0039C4227DC92
:10167000F0EE007ABFEE007AA0EE277A002230EE7C
:10168000270AC7EE007A93E776EE876AE6EEE77AF6
:10169000B0EE670A38BD204B9C420BDCF7EE087AAF
:1016A000B7EE007AA0EE277A022230EE670AC0EE8B
:1016B000077A7DE7BFEE007AC7EE007A032277E76C
:1016C000F7EE007A30EE677A30EE270A0122C7EE95
:1016D000007A6DE7DB0FC93FDB0FC9BFFFFFDF3EBD
:1016E000D769853C59DA4B3D356B883D6E2EBA3D46
:1016F00021A215BD6BF16EBD95879DBD2549123E9A
:10170000388EE3BDABAAAA3ECDCC4CBE28730108EF
:10171000CAF24971FFFF973FFFFF1B4010EE103ADE
:1017200023F0004300EE103A704700BF10EE102A7D
:10173000C2F3C7537F3B162B22F0004128DC002B5D
:1017400018DB1A4919410A4221D0DFED197A70EEEF
:10175000277AF5EEC07AF1EE10FA18DD002A04DAE5
:101760004FF4000040FA03F31A4422EA010300EEAA
:10177000103A7047DFED0E7A70EE277AF5EEC07AF8
:10178000F1EE10FA03DD002A08DB9FED0A0A70472C
:10179000B1F1FF4FFBD330EE000A7047FFEE007A45
:1017A000002918BFB0EE670A704700BFFFFF7F0037
:1017B000CAF24971000000009FED010A704700BFA6
:1017C0000000C07F82B08DED010A019B33F0004222
:1017D0002AD0B2F1FF4F23D213F0FF4F28D19DED55
:1017E000017ADFED2A7A2A4B67EE277A9842CDED0F
:1017F000017A37DB019BC3F3C752193A0244FE2A30
:101800001ADD9FED240A9FED247A019B002BF0EE58
:10181000407AB8BFB0EE470A20EE270A02B0704700
:1018200030EE000A02B070479DED010A02B0704729
:10183000D20D0244FE2AE4DC002A0BDC12F1160F62
:1018400017DA4CF250339842DBDC9FED140A9FED1F
:10185000147ADAE723F0FF4343EAC25300EE103A6A
:1018600002B070479FED0D0ADDED017A27EE800A88
:10187000D8E7193223F0FF4343EAC253DFED097A78
:1018800007EE103A27EE270ACCE700BF0000004C15
:10189000B03CFFFFCAF24971CAF249F16042A20DA1
:1018A0006042A28D0000003380F0004002E000BFE3
:1018B00081F0004142001FBF5FEA410392EA030F3B
:1018C0007FEA226C7FEA236C6AD04FEA1262D2EB85
:1018D0001363C1BFD218414048404140B8BF5B428A
:1018E000192B88BF704710F0004F40F4000020F023
:1018F0007F4018BF404211F0004F41F4000121F039
:101900007F4118BF494292EA030F3FD0A2F1010282
:1019100041FA03FC10EB0C00C3F1200301FA03F1C0
:1019200000F0004302D5494260EB4000B0F5000FE3
:1019300013D3B0F1807F06D340084FEA310102F1A2
:101940000102FE2A51D2B1F1004F40EBC25008BF54
:1019500020F0010040EA03007047490040EB00001E
:10196000013A28BFB0F5000FEDD2B0FA80FCACF11F
:10197000080CB2EB0C0200FA0CF0AABF00EBC2504C
:1019800052421843BCBFD0401843704792F0000F3A
:1019900081F4000106BF80F400000132013BB5E78D
:1019A0004FEA41037FEA226C18BF7FEA236C21D003
:1019B00092EA030F04D092F0000F08BF0846704768
:1019C00090EA010F1CBF0020704712F07F4F04D136
:1019D000400028BF40F00040704712F100723CBF49
:1019E00000F50000704700F0004343F0FE4040F473
:1019F000000070477FEA226216BF08467FEA236331
:101A00000146420206BF5FEA412390EA010F40F41B
:101A1000800070474FF0000304E000BF10F0004367
:101A200048BF40425FEA000C08BF704743F096434E
:101A300001464FF000001CE050EA010208BF704769
:101A40004FF000030AE000BF50EA010208BF7047F0
:101A500011F0004302D5404261EB41015FEA010C05
:101A600002BF84460146002043F0B64308BFA3F1FD
:101A70008053A3F50003BCFA8CF2083AA3EBC253DF
:101A800010DB01FA02FC634400FA02FCC2F12002FE
:101A9000BCF1004F20FA02F243EB020008BF20F035
:101AA0000100704702F1200201FA02FCC2F120029B
:101AB00050EA4C0021FA02F243EB020008BF20EA90
:101AC000DC70704753B94AB9002908BF00281CBF11
:101AD0004FF0FF314FF0FF3000F074B9ADF1080C5A
:101AE0006DE904CE00F006F8DDF804E0DDE902233C
:101AF00004B070472DE9F047089D04468E46002B40
:101B00004DD18A42944669D9B2FA82F252B101FAB1
:101B100002F3C2F1200120FA01F10CFA02FC41EAC1
:101B2000030E94404FEA1C48210CBEFBF8F61FFA46
:101B30008CF708FB16E341EA034306FB07F19942E1
:101B40000AD91CEB030306F1FF3080F01F81994294
:101B500040F21C81023E63445B1AA4B2B3FBF8F06E
:101B600008FB103344EA034400FB07F7A7420AD9F5
:101B70001CEB040400F1FF3380F00A81A74240F21D
:101B800007816444023840EA0640E41B00261DB188
:101B9000D4400023C5E900433146BDE8F0878B42BD
:101BA00009D9002D00F0EF800026C5E9000130467C
:101BB0003146BDE8F087B3FA83F6002E4AD18B4256
:101BC00002D3824200F2F980841A61EB0303012000
:101BD0009E46002DE0D0C5E9004EDDE702B9FFDEEC
:101BE000B2FA82F2002A40F09280A1EB0C014FEA97
:101BF0001C471FFA8CFE0126200CB1FBF7F307FBF4
:101C0000131140EA01410EFB03F0884208D91CEB96
:101C1000010103F1FF3802D2884200F2CB80434633
:101C2000091AA4B2B1FBF7F007FB101144EA014412
:101C30000EFB00FEA64508D91CEB040400F1FF31A1
:101C400002D2A64500F2BB800846A4EB0E0440EA8F
:101C500003409CE7C6F12007B34022FA07FC4CEA98
:101C6000030C20FA07F401FA06F31C43F9404FEA8B
:101C70001C4900FA06F3B1FBF9F8200C1FFA8CFEA0
:101C800009FB181140EA014108FB0EF0884202FAF4
:101C900006F20BD91CEB010108F1FF3A80F08880B5
:101CA000884240F28580A8F102086144091AA4B272
:101CB000B1FBF9F009FB101144EA014100FB0EFEF3
:101CC0008E4508D91CEB010100F1FF346CD28E4522
:101CD0006AD90238614440EA0840A0FB0294A1EBB3
:101CE0000E01A142C846A64656D353D05DB1B3EB10
:101CF000080261EB0E0101FA07F722FA06F3F14040
:101D00001F43C5E9007100263146BDE8F087C2F1E6
:101D10002003D8400CFA02FC21FA03F3914001435E
:101D20004FEA1C471FFA8CFEB3FBF7F007FB103697
:101D30000B0C43EA064300FB0EF69E4204FA02F443
:101D400008D91CEB030300F1FF382FD29E422DD996
:101D5000023863449B1B89B2B3FBF7F607FB1633CB
:101D600041EA034106FB0EF38B4208D91CEB01014B
:101D700006F1FF3816D28B4214D9023E6144C91ACB
:101D800046EA004638E72E46284605E70646E3E6DB
:101D90001846F8E64B45A9D2B9EB020864EB0C0EE5
:101DA0000138A3E74646EAE7204694E74046D1E7F4
:101DB000D0467BE7023B614432E7304609E76444A2
:101DC000023842E7704700BF014B1868704700BFF8
:101DD0000400002470B50D4E0D4D761BB61006D0D4
:101DE000002455F8043B01349847A642F9D1094E26
:101DF000094D761B15F026F8B61006D0002455F8CC
:101E0000043B01349847A642F9D170BDF073010834
:101E1000F073010810740108F0730108844641EA68
:101E2000000313F003036DD1403A41D351F8043B52
:101E300040F8043B51F8043B40F8043B51F8043BA4
:101E400040F8043B51F8043B40F8043B51F8043B94
:101E500040F8043B51F8043B40F8043B51F8043B84
:101E600040F8043B51F8043B40F8043B51F8043B74
:101E700040F8043B51F8043B40F8043B51F8043B64
:101E800040F8043B51F8043B40F8043B51F8043B54
:101E900040F8043B51F8043B40F8043B51F8043B44
:101EA00040F8043B51F8043B40F8043B403ABDD2B3
:101EB000303211D351F8043B40F8043B51F8043B55
:101EC00040F8043B51F8043B40F8043B51F8043B14
:101ED00040F8043B103AEDD20C3205D351F8043BE4
:101EE00040F8043B043AF9D2043208D0D2071CBFB0
:101EF00011F8013B00F8013B01D30B8803806046D9
:101F0000704700BF082A13D38B078DD010F003034E
:101F10008AD0C3F10403D21ADB071CBF11F8013BBE
:101F200000F8013B80D331F8023B20F8023B7BE70D
:101F3000043AD9D3013A11F8013B00F8013BF9D238
:101F40000B7803704B7843708B78837060467047D2
:101F5000830730B548D0541E002A3FD0CAB203468A
:101F600001E0013C3AD303F8012B9D07F9D1032C82
:101F70002DD9CDB245EA05250F2C45EA054536D9C0
:101F8000A4F1100222F00F0C03F1200EE6444FEAF8
:101F9000121C03F1100242E9045542E902551032C5
:101FA0007245F8D10CF1010214F00C0F03EB021290
:101FB00004F00F0C13D0ACF1040323F0030304333B
:101FC000134442F8045B9342FBD10CF003042CB1A0
:101FD000CAB21C4403F8012B9C42FBD130BD6446BD
:101FE0001346002CF4D1F9E703461446BFE71A461E
:101FF000A446E0E710B58CB0002409940A940B9431
:10200000242221466846FFF7A3FF2048204B0360A7
:102010004FF4201343608460046104234361047619
:1020200001234376C36180F820408462C4620322A6
:102030000263C463046480F84440836403F004F8DA
:10204000D8B90023099309A9104803F0C1F9B8B918
:10205000104B0093062301930423029340F2FF7276
:1020600003920493002305938DF8213069460748B5
:1020700002F054FA38B90CB010BD00F097FBE0E75D
:1020800000F094FBE4E700F091FBF4E7BC010024CE
:10209000002002401000C01030B5B7B00446002147
:1020A00031913291339134913591B82202A8FFF7E2
:1020B0004FFF22682B4B9A4201D037B030BD4FF40E
:1020C00000220023CDE902234FF400332A9302A813
:1020D00008F0A8FB00283ED1234BD3F8D82042F0CB
:1020E0002002C3F8D820D3F8D82002F020020092B2
:1020F000009AD3F8E02042F00402C3F8E020D3F8BD
:10210000E03003F004030193019B10233193032378
:1021100032930025339531A9144805F059FB144832
:10212000144B0360092343608560C5604FF48063EE
:1021300003614FF4006343614FF4005383614FF434
:102140008073C3610562456203F08AFC30B9084BB5
:10215000A3659C63B1E700F029FBBDE700F026FB17
:10216000F5E700BF00200240004402580008025872
:102170002C0200248804024008B50548054B036082
:1021800003F0D8F900B908BD00F010FBFBE700BF71
:10219000A40200240044024802680A4B9A4200D07C
:1021A000704782B003F18053D3F8DC2042F4003250
:1021B000C3F8DC20D3F8DC3003F400330193019B37
:1021C00002B070470044024800B583B0454BD3F8D5
:1021D000D82042F00102C3F8D820D3F8D82002F06A
:1021E00001020092009AD3F8D82042F00202C3F80C
:1021F000D820D3F8D83003F002030193019B0022CA
:1022000011460B2003F0C0F90B2003F0F3F9002274
:1022100011460C2003F0B8F90C2003F0EBF9002272
:1022200011460D2003F0B0F90D2003F0E3F9002270
:1022300011460E2003F0A8F90E2003F0DBF900226E
:1022400011460F2003F0A0F90F2003F0D3F900226C
:102250001146102003F098F9102003F0CBF900226A
:102260001146112003F090F9112003F0C3F9002268
:1022700011462F2003F088F92F2003F0BBF900222C
:102280001146382003F080F9382003F0B3F900221A
:102290001146392003F078F9392003F0ABF9002218
:1022A00011463A2003F070F93A2003F0A3F9002216
:1022B00011463B2003F068F93B2003F09BF9002214
:1022C00011463C2003F060F93C2003F093F9002212
:1022D0001146442003F058F9442003F08BF903B071
:1022E0005DF804FB0044025838B51648164B0360ED
:1022F00000238360C3600121017443748374032548
:1023000045610A2282611D24C461026245628262C3
:10231000C462026343638163C363102202640422C4
:1023200042648364C264036542658365C3650821B2
:1023300001664366826604F009FE00B938BD00F00C
:1023400035FAFBE7D002002400A0004038B517485A
:10235000174B036000238360C36001210174437441
:102360008374032545610A2282611D24C4610262CF
:1023700045628262C462026340F255324263816305
:10238000C36310220264042242648364C26403654E
:1023900042658365C365082101664366826604F071
:1023A000D5FD00B938BD00F001FAFBE77003002449
:1023B00000A4004038B51748174B03600023836022
:1023C000C3600121017443748374032545610A22AB
:1023D00082611D24C461026245628262C46202633A
:1023E00040F2AA6242638163C36310220264042242
:1023F00042648364C264036542658365C3650821E2
:1024000001664366826604F0A1FD00B938BD00F0A4
:10241000CDF9FBE71004002400D4004010B5BAB099
:102420000446002135913691379138913991B8227F
:1024300006A8FFF78DFD23687B4A934208D07B4AAC
:10244000934253D07A4A934200F09E803AB010BD36
:102450004FF400420023CDE906234FF0805321932F
:1024600006A808F0DFF980BB724A136801331360D5
:10247000012B2DD0704BD3F8E02042F00802C3F8B6
:10248000E020D3F8E03003F008030193019B03231D
:1024900035930223369300243794389409233993D3
:1024A00035A9664805F094F922462146132003F029
:1024B0006BF8132003F09EF822462146152003F006
:1024C00063F8152003F096F8C0E700F06FF9CBE74A
:1024D000594BD3F8EC2042F48072C3F8EC20D3F8C7
:1024E000EC3003F480730093009BC3E74FF4004289
:1024F0000023CDE906234FF08053219306A808F06E
:1025000091F980BB4B4A136801331360012B2DD026
:10251000494BD3F8E02042F00202C3F8E020D3F8A0
:10252000E03003F002030393039B602335930223FF
:1025300036930024379438940923399335A94048B9
:1025400005F046F922462146142003F01DF8142018
:1025500003F050F822462146162003F015F8162005
:1025600003F048F872E700F021F9CBE7324BD3F8DB
:10257000EC2042F48072C3F8EC20D3F8EC3003F482
:1025800080730293029BC3E74FF400420023CDE91E
:1025900006234FF08053219306A808F043F988BB27
:1025A000244A136801331360012B2ED0224BD3F839
:1025B000E02042F00802C3F8E020D3F8E03003F056
:1025C00008030593059B4FF440533593022336933C
:1025D0000024379438940523399335A9174805F01A
:1025E000F7F8224621469F2002F0CEFF9F2003F0FD
:1025F00001F822462146A02002F0C6FFA02002F0EA
:10260000F9FF23E700F0D2F8CAE70B4BD3F8EC2030
:1026100042F48072C3F8EC20D3F8EC3003F48073FA
:102620000493049BC2E700BF00A0004000A4004048
:1026300000D40040CC02002400440258000C025890
:102640000004025870B58CB00024079408940994D3
:102650000A940B94464BD3F8E02042F01002C3F8E2
:10266000E020D3F8E02002F010020192019AD3F8A2
:10267000E02042F00402C3F8E020D3F8E02002F0AA
:1026800004020292029AD3F8E02042F08002C3F8DA
:10269000E020D3F8E02002F080020392039AD3F8FE
:1026A000E02042F00102C3F8E020D3F8E02002F07D
:1026B00001020492049AD3F8E02042F00202C3F827
:1026C000E020D3F8E02002F002020592059AD3F848
:1026D000E02042F00802C3F8E020D3F8E03003F035
:1026E00008030693069B234D22464FF4604128467B
:1026F00005F07FF901220921284605F07AF94FF407
:10270000604307930126089609940A9407A928466E
:1027100005F05EF8092307930896099403230A93AA
:1027200007A9284605F054F84FF4A05307934FF437
:1027300088130893099407A90F4805F049F84FF446
:10274000004307930894099407A90C4805F040F842
:1027500021464FF0006001F07DFE224621462820F0
:1027600002F012FF282002F045FF0CB070BD00BF40
:102770000044025800080258001002580000025895
:1027800008B50848084B03600623436040F2FF3356
:10279000C360836005F042F900B908BD00F006F897
:1027A000FBE700BFB00400240048005872B6FEE703
:1027B00000B59DB04C22002109A8FFF7C9FB2022DB
:1027C000002101A8FFF7C4FB022007F06DF90023E8
:1027D0000093224B9A6922F440429A619B6903F468
:1027E00040430093009B1D4B9B6913F4005FFAD09C
:1027F000292309934FF480330A9301220E920F92FA
:1028000002231293139314932821159116920422F4
:10281000179218930C23199300231A931B9309A85A
:1028200007F074F9A8B93F23019303210291002313
:102830000393082304934023059306934FF4806287
:102840000792089301A807F051FD20B91DB05DF86B
:1028500004FBFFF7ABFFFFF7A9FF00BF00480258DA
:1028600000B5AFB0B82200216846FFF771FB4FF00A
:1028700000420023CDE900234FF000531593684632
:1028800007F0D0FF10B92FB05DF804FBFFF78EFF03
:1028900008B52E4B5B6913F4003F13D1BFF34F8F84
:1028A000BFF36F8F294B0022C3F85022BFF34F8F25
:1028B000BFF36F8F5A6942F400325A61BFF34F8FF2
:1028C000BFF36F8F01F072FDFFF772FFFFF7C8FFD4
:1028D000FFF7B8FEFFF778FC00F03AF80DF090FF34
:1028E000FFF788FBFFF700FDFFF730FDFFF762FD04
:1028F00001F0D2F801F004F901F03AF901F05CF8C6
:1029000001F096F801F06CF900F07AF900F0AAF9FC
:10291000FFF736FF00F0FAFE00F072FF00F0C4FF90
:1029200000F0C8FC00F000FD01F000F800F026FD0A
:1029300000F04CFDFFF720FC00F026F800F082FCD0
:1029400014F01EF814F0AEF8FCE700BF00ED00E054
:1029500000B583B00B4BD3F8D42042F00102C3F88A
:10296000D420D3F8D43003F001030193019B00225B
:1029700011467A2002F008FE7A2002F03BFE03B0F6
:102980005DF804FB0044025800B587B000230093B3
:10299000019302930393049305931848184A026025
:1029A000012242608360C36017210161426183613B
:1029B000C2610362022242624FF080428262C362BD
:1029C0000363082242638363C36305F0F9FE78B9A9
:1029D0000123009302934FF00113039341F28832D5
:1029E0006946064805F070FF28B907B05DF804FB9A
:1029F000FFF7DCFEECE7FFF7D9FEF6E72C05002435
:102A000000A000522DE9F04FBBB0044600213591E3
:102A10003691379138913991B82206A8FFF798FA84
:102A200022686F4B9A4202D03BB0BDE8F08F4FF066
:102A300000720023CDE9062306A807F0F3FE002864
:102A400040F0C480674BD3F8D42042F40012C3F89E
:102A5000D420D3F8D42002F400120092009AD3F8C4
:102A6000D42042F40022C3F8D420D3F8D42002F4B6
:102A700000220192019AD3F8E02042F00102C3F84B
:102A8000E020D3F8E02002F001020292029AD3F88B
:102A9000E02042F00202C3F8E020D3F8E02002F088
:102AA00002020392039AD3F8E02042F01002C3F826
:102AB000E020D3F8E02002F010020492049AD3F848
:102AC000E02042F00802C3F8E020D3F8E03003F041
:102AD00008030593059B0226359636960025379503
:102AE000032738974FF00908CDF8E480DFF80C9100
:102AF00035A9484604F06CFE4FF0080ACDF8D4A082
:102B00003696379538970623399335A9484604F009
:102B10005FFE4FF00109CDF8D4903696379538977F
:102B20004FF0040BCDF8E4B035A92F4804F050FE67
:102B3000CDF8D4B0369637953897CDF8E48035A9DE
:102B4000294804F045FE4FF4006BCDF8D4B036961A
:102B5000379538970B23399335A9244804F038FE6C
:102B6000CDF8D4B0369637953897CDF8E48035A9AE
:102B70001F4804F02DFE1F481F4B036020234360B5
:102B80008560C56005614661C0F818A0C561056231
:102B90004FF000734362C0F82890C5620563456337
:102BA000856305F017F8A0B900221146114805F019
:102BB00041F888B90F4BE3641C640022114696204B
:102BC00002F0E2FC962002F015FD2DE7FFF7EEFD86
:102BD00038E7FFF7EBFDE7E7FFF7E8FDEAE700BFBF
:102BE00000A000520044025800040258001002588D
:102BF000000C0258C004002440000052000002589B
:102C000008B51648164B03604FF480034360002359
:102C100083600722C2604FF0007202614FF0807241
:102C200042614FF0806282614FF00052C2610362E4
:102C300043628362C3624FF0804242638363C36333
:102C4000036443648364C36403654365836509F077
:102C500089F900B908BDFFF7A9FDFBE77806002454
:102C60000038004008B51548154B03604FF4800349
:102C700043604FF4003383600723C3600023036184
:102C800043614FF0806282614FF00052C261036283
:102C900043628362C3624FF0804242638363C363D3
:102CA000036443648364C36403654365836509F017
:102CB00059F900B908BDFFF779FDFBE700070024CB
:102CC000001400582DE9F041BAB0044600213591B6
:102CD0003691379138913991B82206A8FFF738F923
:102CE0002368734A934206D0724A934200F09E8052
:102CF0003AB0BDE8F0814FF480520023CDE90623BD
:102D000018231093A0231193022312931393149367
:102D10004FF4007316934FF400531D9306A807F069
:102D200081FD002879D1644BD3F8E82042F4804239
:102D3000C3F8E820D3F8E82002F480420192019A17
:102D4000D3F8E02042F00402C3F8E020D3F8E020FA
:102D500002F004020292029AD3F8E02042F002024A
:102D6000C3F8E020D3F8E03003F002030393039BA1
:102D7000062335934FF00208CDF8D880002537950B
:102D8000032638960527399735A94C4804F020FDCD
:102D90004FF400533593CDF8D8803795389639974E
:102DA00035A9474804F014FD4648474B03602723E4
:102DB00043608560C5604FF4806303614561856150
:102DC000C5610562042343628662C562056302F041
:102DD00047FE28BB3B4BE3679C633C483C4B03608E
:102DE00028234360402383600023C3604FF4806244
:102DF000026143618361C3610362436202F030FE9A
:102E000088B9324BA3679C6300221146242002F04C
:102E1000BBFB242002F0EEFB6AE7FFF7C7FC82E76A
:102E2000FFF7C4FCD6E7FFF7C1FCEAE74FF48042A6
:102E30000023CDE906230C2308936423099302237E
:102E40000A9304220B920C9340230D934FF080536E
:102E5000319306A807F0E6FC38BB174BD3F8F420F3
:102E600042F02002C3F8F420D3F8F42002F020024C
:102E70000492049AD3F8E02042F00102C3F8E02063
:102E8000D3F8E03003F001030593059BA0233593AD
:102E9000022336930023379303233893082339936F
:102EA00035A90C4804F094FC22E7FFF77FFCD4E737
:102EB000003800400014005800440258000802582E
:102EC000000402588805002458040240000600242B
:102ED000700402400000025882B0074BD3F8F4207F
:102EE00042F00202C3F8F420D3F8F43003F00203F6
:102EF0000193019B02B0704700440258FEE7FEE7D1
:102F0000FEE7FEE7FEE770477047704708B501F03F
:102F10007BFA08BD08B5024803F090FB08BD00BF6E
:102F2000F40D002408B5024803F088FB08BD00BF7B
:102F30007C0D002408B5024803F080FB08BD00BFEB
:102F40006C0E002408B5024803F078FB08BD00BFF2
:102F5000E40E002408B5024803F070FB08BD00BF72
:102F6000340A002408B5024803F068FB08BD00BF1E
:102F70008C0C002408B5024803F060FB08BD00BFBC
:102F8000040D002408B5024804F094FA08BD00BFFF
:102F9000D002002408B5024804F08CFA08BD00BF36
:102FA0007003002408B5024804F084FA08BD00BF8D
:102FB000D002002408B5024804F07CFA08BD00BF26
:102FC0007003002408B502480AF0A2F908BD00BF4A
:102FD000B808002408B5024809F0A8FE08BD00BFE3
:102FE0007806002408B502480AF0D6FE08BD00BFE6
:102FF0005C0F002408B502480AF0CEFE08BD00BFF1
:103000008410002408B502480AF0C6FE08BD00BFBF
:103010001811002408B54FF4806004F0F0FC4FF460
:10302000805004F0ECFC08BD08B502480AF070F9C5
:1030300008BD00BFE809002408B5024803F0FEFA05
:1030400008BD00BFAC0A002408B502480AF060F9C8
:1030500008BD00BF0409002408B502480AF09CFE20
:1030600008BD00BFAC11002408B502480AF050F9B1
:1030700008BD00BF5009002408B502480AF048F90D
:1030800008BD00BF9C09002408B5024803F0D6FA29
:1030900008BD00BF240B002408B5024803F0CEFA97
:1030A00008BD00BF9C0B002408B5024803F0C6FA17
:1030B00008BD00BF140C002408B5024803F0BEFA96
:1030C00008BD00BF8805002408B5024803F0B6FA21
:1030D00008BD00BF0006002408B5024803F0AEFAA0
:1030E00008BD00BF2C02002408B5024806F09EF976
:1030F00008BD00BFB817002408B502480AF04CFE0E
:1031000008BD00BF4012002408B5024804F032FE9A
:1031100008BD00BFC004002408B5024805F07EFACF
:1031200008BD00BF2C05002408B502480AF034FE93
:1031300008BD00BFF00F002408B5024804F0BAF93A
:1031400008BD00BF1004002408B5024804F0B2F91D
:1031500008BD00BF100400242B4AD2F8883043F485
:103160007003C2F88830294B1B6803F00F03062B4D
:1031700006D8264A136823F00F0343F007031360B1
:10318000234B1A6842F001021A6000221A61196882
:10319000204A0A401A601D4B1B6813F0080F06D026
:1031A0001A4A136823F00F0343F007031360184B08
:1031B00000229A61DA611A62174999621749D96245
:1031C000174919635A639963DA6319645A64196871
:1031D00021F4802119601A66D3F8D43013F4805F8B
:1031E00010D10B4BD3F8D42042F48052C3F8D42032
:1031F0000C4A43F2D2011160D3F8D42022F4805259
:10320000C3F8D420704700BF00ED00E0002000525A
:10321000004402587FEDF6EA000202020000FF01BE
:103220008002010100400052054AD36843F00203C6
:10323000D360034B5B6813F4005FFAD0704700BFA4
:103240000048025800B589B0002304930593069303
:1032500007930193029303931448154A0260EF22E7
:10326000426083600922C260036183610AF09EF9B3
:1032700090B94FF48053049304A90C480AF0EAFA79
:1032800068B900230193039301A908480AF04AFC96
:1032900040B909B05DF804FBFFF788FAE9E7FFF7EA
:1032A00085FAEEE7FFF782FAF3E700BFB8080024DB
:1032B0000008004000B589B00023049305930693ED
:1032C00007930193029303931448154A0260EF2277
:1032D00042608360134AC260036183610AF066F949
:1032E00090B94FF48053049304A90C480AF0B2FA41
:1032F00068B900230193039301A908480AF012FC5E
:1033000040B909B05DF804FBFFF750FAE9E7FFF7B1
:103310004DFAEEE7FFF74AFAF3E700BF040900248D
:10332000000C0040FFA393D600B585B000230193A5
:10333000029303930F48104A026045F6BF52426061
:10334000836042F20F72C26083610AF02FF950B9B4
:1033500000230193039301A906480AF0E3FB28B96F
:1033600005B05DF804FBFFF721FAF1E7FFF71EFA5D
:10337000F6E700BF500900240010004000B585B0FA
:1033800000230193029303930E480F4A0260EF2239
:103390004260836040F2E732C26083610AF006F95E
:1033A00050B900230193039301A906480AF0BAFB20
:1033B00028B905B05DF804FBFFF7F8F9F1E7FFF76E
:1033C000F5F9F6E79C0900240014004000B589B027
:1033D00000230493059306930793019302930393A9
:1033E0001548164A0260EF22426083607C22C26068
:1033F0000361436183610AF0D9F898B94FF48053AF
:10340000049304A90C480AF025FA70B9002301932B
:103410000293039301A908480AF084FB40B909B05C
:103420005DF804FBFFF7C2F9E8E7FFF7BFF9EDE746
:10343000FFF7BCF9F3E700BFE809002400040140EE
:1034400084B00368224A934216D0B3F1804F22D051
:10345000204A93422DD0204A93421AD11F4BD3F8D1
:10346000E82042F04002C3F8E820D3F8E83003F047
:1034700040030393039B0CE0184BD3F8F02042F079
:103480000102C3F8F020D3F8F03003F001030093F9
:10349000009B04B07047114BD3F8E82042F00102C2
:1034A000C3F8E820D3F8E83003F001030193019B4F
:1034B000EFE70A4BD3F8E82042F00202C3F8E82015
:1034C000D3F8E83003F002030293029BE1E700BF68
:1034D0000000014000040040001800400044025871
:1034E00000B587B00368404A93420ED03F4A9342EA
:1034F00021D03F4A934234D03E4A934247D03E4A7D
:1035000093425AD007B05DF804FB3C4BD3F8E82057
:1035100042F00402C3F8E820D3F8E83003F00403D3
:103520000193019B002205211E2002F02DF81E2090
:1035300002F060F8E6E7314BD3F8E82042F00802E9
:10354000C3F8E820D3F8E83003F008030293029BA5
:1035500000220521322002F017F8322002F04AF84A
:10356000D0E7264BD3F8E82042F01002C3F8E82059
:10357000D3F8E83003F010030393039B00220521E6
:10358000362002F001F8362002F034F8BAE71B4B7F
:10359000D3F8E82042F02002C3F8E820D3F8E8305E
:1035A00003F020030493049B00220521372001F03F
:1035B000EBFF372002F01EF8A4E7104BD3F8F02001
:1035C00042F00202C3F8F020D3F8F03003F0020317
:1035D0000593059B002205212C2001F0D5FF2C200E
:1035E00002F008F88EE700BF00080040000C004021
:1035F0000010004000140040000401400044025844
:1036000000B58BB0002305930693079308930993A5
:103610000368374A93420BD0B3F1804F21D0354A2B
:10362000934236D0344A934249D00BB05DF804FB44
:10363000324BD3F8E02042F01002C3F8E020D3F878
:10364000E03003F010030193019B4FF408530593FE
:10365000022306930123099305A9294804F0B8F829
:10366000E3E7264BD3F8E02042F00102C3F8E02064
:10367000D3F8E03003F001030293029B0523059386
:10368000022306930123099305A91E4804F0A0F81C
:10369000CBE71A4BD3F8E02042F00202C3F8E02057
:1036A000D3F8E03003F002030393039B0223059356
:1036B0000693099305A9144804F08AF8B5E70F4B5F
:1036C000D3F8E02042F00202C3F8E020D3F8E03063
:1036D00003F002030493049B4FF400430593022379
:1036E0000693099305A9084804F072F89DE700BF06
:1036F000000001400004004000180040004402584F
:1037000000100258000002580004025810B598B08A
:1037100000241594169417940E940F9410941194F9
:103720001294139414943422214601A8FEF710FC3D
:103730003148324B0360EF234360846042F20F73E1
:10374000C360046144618023836109F05FFF002846
:1037500042D1002315931693179315A926480AF012
:10376000E1F900283BD160230E9300220F921092C2
:1037700011921292139214920EA91F4809F0C0FFE1
:1037800000282FD11C480268936923F00803936135
:1037900008220EA909F0B4FF38BB17480268D369A4
:1037A00023F00803D361002301930293039304934E
:1037B00005934FF400520692079309934FF000725D
:1037C0000A920B930D9301A90AF004FA80B90A48F2
:1037D000FFF716FF18B010BDFEF7E8FFB9E7FEF7D8
:1037E000E5FFC0E7FEF7E2FFCCE7FEF7DFFFD4E737
:1037F000FEF7DCFFEBE700BF880700240000014074
:1038000000B58BB0002307930893099300930193AD
:103810000293039304930593069322484FF080424A
:103820000260EF224260836042F20F72C260036165
:103830008023836109F0EAFE40BB002307930993CC
:1038400007A918480AF06EF918BB602300930022FC
:103850000192029204926946124809F051FFD8B9C8
:1038600010480268936923F00803936108226946AF
:1038700009F046FF98B90B480268D36923F00803A2
:10388000D361FFF7BDFE0BB05DF804FBFEF78EFFC2
:10389000D3E7FEF78BFFD8E7FEF788FFE0E7FEF7F8
:1038A00085FFE8E72008002400B58BB000230793CC
:1038B0000893099300930193029303930493059350
:1038C00006931848184A0260EF224260836042F271
:1038D0000F72C2600361836109F098FEC8B90023CA
:1038E0000793099307A90F480AF01CF9A0B96023B0
:1038F000009300230193029304930C226946094824
:1039000009F0FEFE58B90748FFF77AFE0BB05DF8E4
:1039100004FBFEF74BFFE2E7FEF748FFE7E7FEF7A1
:1039200045FFF0E76C0800240004004000B58BB0B0
:103930000023079308930993009301930293039341
:103940000493059306931A481A4A0260EF224260D4
:103950008360F922C2600361836109F057FEF0B908
:1039600000230793099307A911480AF0DBF8C8B9A7
:103970006023009300230193029304930422694679
:103980000B4809F0BDFE80B909480268936923F429
:1039900000639361FFF734FE0BB05DF804FBFEF7A4
:1039A00005FFDDE7FEF702FFE2E7FEF7FFFEEBE7CC
:1039B000D40700240018004008B51A481A4B0360C9
:1039C0001A4B43604FF4805383604FF40053C3603D
:1039D0004FF4806303610423436100238361C36167
:1039E0000362436283620BF096F870B900210D48C0
:1039F0000BF0A8F960B900210A480BF0C8F950B9DA
:103A000008480BF080F948B908BDFEF7CFFEEDE796
:103A1000FEF7CCFEEFE7FEF7C9FEF1E7FEF7C6FEC4
:103A2000F2E700BFAC11002400500040A086010066
:103A300008B51748174B03604FF4E1334360002388
:103A40008360C36003610C2242618361C3610362CE
:103A5000436283620BF05FF870B900210C480BF0F1
:103A600071F960B900210A480BF091F950B9084882
:103A70000BF049F948B908BDFEF798FEEDE7FEF7EF
:103A800095FEEFE7FEF792FEF1E7FEF78FFEF2E715
:103A9000401200240078004008B51748174B036017
:103AA0004FF4E133436000238360C36003610C2261
:103AB00042618361C3610362436283620BF02BF84E
:103AC00070B900210C480BF03DF960B900210A489B
:103AD0000BF05DF950B908480BF015F948B908BD6D
:103AE000FEF764FEEDE7FEF761FEEFE7FEF75EFE30
:103AF000F1E7FEF75BFEF2E75C0F002400100140E7
:103B000008B51848184B0360184B436000218160CA
:103B1000C16001610C2343618161C1610162416245
:103B200081620B460A460BF0A7F870B900210D48D8
:103B30000BF008F960B900210A480BF028F950B9D8
:103B400008480BF0E0F848B908BDFEF72FFEEDE796
:103B5000FEF72CFEEFE7FEF729FEF1E7FEF726FE63
:103B6000F2E700BF841000240044004040420F00F0
:103B700008B51848184B0360184B4360002181605A
:103B8000C16001610C2343618161C16101624162D5
:103B900081620B460A460BF06FF870B900210D48A0
:103BA0000BF0D0F860B900210A480BF0F0F850B9DA
:103BB00008480BF0A8F848B908BDFEF7F7FDEDE797
:103BC000FEF7F4FDEFE7FEF7F1FDF1E7FEF7EEFD9E
:103BD000F2E700BF181100240048004040420F00E7
:103BE00008B51748174B03604FF4E13343600023D7
:103BF0008360C36003610C2242618361C36103621D
:103C0000436283620AF087FF70B900210C480BF011
:103C100099F860B900210A480BF0B9F850B9084882
:103C20000BF071F848B908BDFEF7C0FDEDE7FEF7EF
:103C3000BDFDEFE7FEF7BAFDF1E7FEF7B7FDF2E7EE
:103C4000F00F0024001C01402DE9F041C2B00446F1
:103C500000213D913E913F9140914191B8220EA8A3
:103C6000FEF776F92368824A934216D0814A93423E
:103C700000F08580804A934200F01A817F4A934287
:103C800000F08F817E4A934200F01A827D4A93426F
:103C900000F0A68242B0BDE8F08102220023CDE907
:103CA0000E230EA806F0BEFD002862D1764BD3F895
:103CB000E82042F48012C3F8E820D3F8E82002F4A8
:103CC00080120092009AD3F8E02042F00402C3F878
:103CD000E020D3F8E02002F004020192019AD3F828
:103CE000E02042F00802C3F8E020D3F8E03003F00F
:103CF00008030293029B4FF480533D934FF0020858
:103D0000CDF8F88000253F954095082741973DA9BB
:103D10005E4803F05DFD04263D96CDF8F8803F95A2
:103D2000409541973DA95A4803F052FD59485A4BD6
:103D30000360412343608560C5604FF48063036185
:103D400045618561C5610562466203238362C56280
:103D5000056301F085FE78B94E4BC4F880309C6352
:103D600000221146352001F00FFC352001F042FC05
:103D700090E7FEF71BFD99E7FEF718FDECE702223E
:103D80000023CDE90E230EA806F04CFD002866D1D5
:103D90003D4BD3F8E82042F08042C3F8E820D3F846
:103DA000E82002F080420392039AD3F8E02042F028
:103DB0001002C3F8E020D3F8E03003F010030493BE
:103DC000049B4FF4C0733D9302233E9300253F951F
:103DD0004095072341933DA9304803F0F9FC304852
:103DE000304B03604F2343608560C5604FF48063B0
:103DF000036145618561C561056204234362032354
:103E00008362C562056301F02BFE58BB244BC4F8E6
:103E100080309C632448254B03605023436040233B
:103E200083600023C3604FF4806202614361836159
:103E3000C36103620422426203228262C36203639B
:103E400001F00EFE88B9184BE3679C63002211460F
:103E5000522001F099FB522001F0CCFB1AE7FEF74B
:103E6000A5FC95E7FEF7A2FCD0E7FEF79FFCEAE78A
:103E70000050004000780040001001400044004025
:103E800000480040001C014000440258000802584D
:103E9000000C0258340A002470000240001002583E
:103EA000AC0A0024B8000240240B00241004024095
:103EB00001220023CDE90E230EA806F0B3FC002852
:103EC00066D1744BD3F8F02042F01002C3F8F02012
:103ED000D3F8F02002F010020592059AD3F8E02002
:103EE00042F00102C3F8E020D3F8E03003F0010310
:103EF0000693069B4FF4C0633D9302233E93002537
:103F00003F954095072341933DA9634803F060FC2A
:103F10006248634B0360292343608560C5604FF4AA
:103F20008063036145618561C56105620423436265
:103F300003238362C562056301F092FD58BB574BB2
:103F4000C4F880309C635748574B03602A23436072
:103F5000402383600023C3604FF4806202614361A9
:103F60008361C36103620422426203228262C362EC
:103F7000036301F075FD88B94A4BE3679C63002237
:103F80001146252001F000FB252001F033FB81E6DE
:103F9000FEF70CFC95E7FEF709FCD0E7FEF706FC00
:103FA000EAE702220023CDE90E230EA806F03AFC30
:103FB000002865D1374BD3F8E82042F40032C3F82B
:103FC000E820D3F8E82002F400320792079AD3F8E9
:103FD000E02042F00802C3F8E020D3F8E03003F01C
:103FE00008030893089B70233D9302233E9300250A
:103FF0003F954095072341933DA92C4803F0E8FBEA
:104000002B482C4B03602B2343608560C5604FF425
:104010008063036145618561C56105620423436274
:1040200003238362C562056301F01AFD58BB204B70
:10403000C4F880309C632048204B03602C234360ED
:10404000402383600023C3604FF4806202614361B8
:104050008361C36103620422426203228262C362FB
:10406000036301F0FDFC88B9134BE3679C630022F6
:104070001146262001F088FA262001F0BBFA09E655
:10408000FEF794FB96E7FEF791FBD0E7FEF78EFB79
:10409000EAE700BF00440258000002588C0C0024DC
:1040A00088000240040D0024A0000240000C0258C9
:1040B0007C0D002428000240F40D00241000024072
:1040C00002220023CDE90E230EA806F0ABFB002848
:1040D0007DD1804BD3F8E82042F48022C3F8E82059
:1040E000D3F8E82002F480220992099AD3F8E0205C
:1040F00042F00202C3F8E020D3F8E02002F002020E
:104100000A920A9AD3F8E02042F00802C3F8E020AD
:10411000D3F8E03003F008030B930B9B4FF480437C
:104120003D9302273E9700253F95409507264196EF
:104130003DA9694803F04CFB4FF440733D933E9713
:104140003F95409541963DA9644803F041FB644882
:10415000644B03602D2343608560C5604FF480632A
:10416000036145618561C5610562042343620323E0
:104170008362C562056301F073FC58BB584BC4F8F9
:1041800080309C635848594B03602E234360402382
:1041900083600023C3604FF48062026143618361E6
:1041A000C36103620422426203228262C362036328
:1041B00001F056FC88B94C4BE3679C630022114622
:1041C000272001F0E1F9272001F014FA62E5FEF75B
:1041D000EDFA7EE7FEF7EAFAD0E7FEF7E7FAEAE75C
:1041E00001220023CDE90E230EA806F01BFB0028B8
:1041F00066D1384BD3F8F02042F08002C3F8F020AB
:10420000D3F8F02002F080020C920C9AD3F8E02050
:1042100042F01002C3F8E020D3F8E03003F01003BE
:104220000D930D9B04233D9302273E9700253F9558
:10423000409541932E4E3DA9304603F0C9FA08231C
:104240003D933E973F9540950B2341933DA93046C2
:1042500003F0BEFA2748284B03607623436085604D
:10426000C5604FF48063036145618561C561056286
:10427000456201F0F5FB30BB1E4BC4F880309C63F7
:104280001E481F4B03607723436040238360002355
:10429000C3604FF48062026143618361C361036262
:1042A000436201F0DDFB88B9144BE3679C63002295
:1042B00011469C2001F068F99C2001F09BF9E9E48B
:1042C000FEF774FA95E7FEF771FAD5E7FEF76EFA96
:1042D000EAE700BF0044025800040258000C0258EC
:1042E0006C0E002440000240E40E002458000240FE
:1042F000001002589C0B002428040240140C0024D7
:1043000040040240DFF838D0FEF78EFFFEF724FFAE
:104310000C480D490D4A002302E0D458C450043320
:10432000C4188C42F9D30A4A0A4C002301E01360F6
:104330000432A242FBD3FDF74DFDFEF7A9FA704708
:1043400000000524000000249C01002414740108CE
:10435000A001002454710024FEE70000104B1B78DC
:104360000BB90120704710B504464FF47A70B0FBCA
:10437000F3F30C4A1068B0FBF3F001F049F968B9A7
:104380000F2C01D901200AE0002221464FF0FF3016
:1043900001F0FAF8044B1C60002000E0012010BD81
:1043A00070000024680000247400002410B503206D
:1043B00001F0D8F805F0A0FE0F498B69C3F3032381
:1043C0000E4AD35C03F01F03D8408B6903F00F0340
:1043D000D35C03F01F0320FA03F3094A1360094B6F
:1043E00018600F20FFF7BAFF10B10124204610BD5E
:1043F0000446FEF771FDF9E70044025848730108CE
:104400006C00002468000024034B1B78034A1168E9
:104410000B441360704700BF70000024D4120024C6
:10442000014B1868704700BFD412002438B5044609
:10443000FFF7F6FF0546B4F1FF3F02D0044B1B78AF
:104440001C44FFF7EDFF401BA042FAD338BD00BF6C
:1044500070000024034A536823EA00030B435360AF
:10446000704700BF000400587047704708B5806B64
:10447000FFF7FBFF08BD704708B50346806B026E6F
:1044800012F0500F30D1036E43F4007303660368DB
:104490001A6812F0080F14D0DA6812F4406F20D1B5
:1044A000DB6813F4005F1CD1036E23F48073036692
:1044B000036E13F4805F14D1036E43F001030366AF
:1044C0000FE0DB6813F0030F0BD1036E23F480734E
:1044D0000366036E13F4805F03D1036E43F00103A0
:1044E0000366FFF7C1FF08BD026E12F0100F04D182
:1044F000826DD26C18469047F5E7FFF7BCFFF2E7F4
:1045000008B5806B036E43F040030366436E43F0CF
:1045100004034366FFF7AFFF08BD0000F0B583B0AA
:104520000022019290F85C20012A00F07E8303466D
:10453000012280F85C200268906810F0040F09D016
:104540001A6E42F020021A660120002283F85C20D5
:1045500003B0F0BD086800280DDB9B4CA2420AD0D6
:10456000C0F31304002C52D1C0F3846001248440B2
:10457000D0692043D0611D684C683035220A920012
:1045800002F00C02A85804F01F0E1F2404FA0EF4C7
:1045900020EA04000C68C4F3846C0CFA0EFC40EAB8
:1045A0000C00A8501C68A26812F0040200D001227E
:1045B000A06810F0080000D00120024333D01E682C
:1045C000B26812F0010240F02C830868CD687E4C7E
:1045D000A64200F09C81D6F8C040C0F3130724EA3D
:1045E000070405F01805794F27FA05F52840C0F3B0
:1045F00013002043C6F8C000CC687548844200F020
:1046000098810A68002AC0F28B8200209DE790FA08
:10461000A0F030B1B0FA80F000F01F000124844017
:10462000A6E72020F8E70F688D681434780E800024
:1046300000F004002658C7F3045E4FF0070C0CFA94
:104640000EFC26EA0C0C05FA0EF54CEA0505255081
:1046500018685D4CA04211D05E4C246804F0704490
:10466000B4F1805F3FD0C46814F0100F42D14C69A0
:10467000C568C5F382056D00AC4005E04C69C568AE
:10468000C5F3C1056D00AC400D69042D3AD14E4A09
:10469000904200F0A180026E02F0F8420C68B2EB8A
:1046A000846F00F025811868426E02F0F8420C68B1
:1046B000B2EB846F00F021811868826E02F0F8423C
:1046C0000C68B2EB846F00F01D811868C26E02F0B6
:1046D000F8420C68B2EB846F7FF471AFC26E22F0C7
:1046E0000042C2666BE74C69C568C5F382056D0080
:1046F000AC40C9E74C69C568AD0805F004056D001C
:10470000AC40C1E70E6800F16007DFF8BCC060454F
:1047100029D057F8250000F0004006F0F846344351
:10472000044347F825401868274CA04225D00E695D
:1047300091F82140012C40D01546603050F82640B9
:1047400024F000442C4340F826401D680C69087E84
:10475000012835D0286920F4F04004F01F04A2405D
:1047600002432A612BE757F8250006F0F846344348
:1047700044F0004447F82540D5E70E69CC69603025
:1047800050F8265025F080752C4340F826401868D4
:104790000D6991F82040012C0CD00B4CA0427FF405
:1047A0000EAF603050F8254024F00074224340F8EA
:1047B000252004E74FF00072EFE74FF00045BCE71B
:1047C0004FF40062C6E700BF00600258FFFF0F0011
:1047D0000000FF470010005C026E046EC4F38464A6
:1047E0000A68C2F31305002D36D1C2F384629442E5
:1047F0003AD01C68626E606EC0F384600A68C2F3CF
:104800001305002D3DD1C2F38462904241D01C6853
:10481000A26EA06EC0F384600A68C2F31305002D77
:1048200044D1C2F38462904248D01C68E26EE06ECC
:10483000C0F384600A68C2F31305002D4BD1C2F3A4
:10484000846290427FF4BBAE954A94424BD0E26EB4
:1048500022F00042E266B2E692FAA2F212B1B2FA95
:1048600082F2C4E72022C2E78D4A904204D0026E51
:1048700022F000420266BCE7026E22F000420266AD
:10488000B7E792FAA2F212B1B2FA82F2BDE72022A1
:10489000BBE7834A944204D0626E22F00042626613
:1048A000B5E7626E22F000426266B0E792FAA2F2C9
:1048B00012B1B2FA82F2B6E72022B4E7784A944203
:1048C00004D0A26E22F00042A266AEE7A26E22F0F1
:1048D0000042A266A9E792FAA2F212B1B2FA82F2FB
:1048E000AFE72022ADE7E26E22F00042E26666E624
:1048F000026E22F000420266D5E6426E22F00042CD
:104900004266D9E6826E22F000428266DDE6D6F883
:10491000B070C0F3130427EA040705F01805614CD2
:1049200024FA05F52840C0F313003843C6F8B00058
:1049300062E618685C4CA04215D05C4CA0423BD0AB
:10494000574CA0425ED0564CA0423FF45AAEC2F340
:104950001304002C40F0D880920E01249440C269C8
:104960002243C2614DE60C68514DAC426ED0514DB0
:10497000AC426DD0504DAC426CD0504DAC426BD07F
:1049800005F186651035AC4268D04D4DAC4267D01C
:1049900005F1042505F54015AC4263D005F18665A7
:1049A00005F50065AC425FD0464DAC425ED0464D49
:1049B000AC42C8D1454AC6E70C683D4DAC4257D021
:1049C0003C4DAC4256D03C4DAC4255D03B4DAC4238
:1049D00054D005F186651035AC4251D0384DAC420B
:1049E00050D005F1042505F54015AC424CD005F139
:1049F000866505F50065AC4248D0334DAC42A2D186
:104A0000324AA0E70C682A4DAC4241D0294DAC4255
:104A100040D0294DAC423FD0284DAC423ED005F1AC
:104A200086651035AC4267D0254DAC4266D005F1A5
:104A3000042505F54015AC4262D0254DAC4261D04D
:104A4000244DAC427FF47FAF234A7CE701227AE712
:104A5000224A78E7224A76E7224A74E7224A72E736
:104A6000224A70E7224A6EE7194A6CE7214A6AE750
:104A7000012268E7194A66E7194A64E7194A62E7BA
:104A8000194A60E7194A5EE7194A5CE7104A5AE793
:104A9000012258E7114A56E7114A54E7114A52E7F2
:104AA00000600258FFFF0F0000200240002102407A
:104AB00002003004040060080800900C1000C010D0
:104AC0000004002A000021430000844B0000B84F7E
:104AD000002090360040C03A0080F03E400020198F
:104AE0008000501D000180210002B0250008302EFA
:104AF00000106032000052474D4A24E74D4A22E739
:104B00004D4A20E74D4A1EE792FAA2F232B1B2FABC
:104B100082F202F01F020124944020E72022F8E7ED
:104B200019684748474CA14218BF81420CBF012079
:104B3000002021D1444EB56805F0E077F0B140483F
:104B4000806810F0010000D001203E4CA46814F0F1
:104B5000010400D0012420430CBF012000200028C4
:104B600059D03A48824212D03948824231D039482D
:104B700082423FD00020E8E4374EDCE737488068C7
:104B800010F0010000D0012080F00100E7E715F4EB
:104B9000000FE9D1314A914201D00020D5E447F419
:104BA0000002B16821F0E0710A43B2602C4A126839
:104BB00092092C49A1FB0212920901325200019282
:104BC00002E0019A013A0192019A002AF9D10020EB
:104BD000BBE415F0807FCAD1204A914201D0002069
:104BE000B3E447F08072B16821F0E0710A43B2602B
:104BF0000020AAE415F4800F15D1184A914201D083
:104C00000020A2E447F48002B16821F0E0710A4379
:104C1000B260002099E41A6E42F020021A66012068
:104C200093E4002091E400208FE4022090E400BF90
:104C30000002B0250008302E001060320040C03A5B
:104C4000002002400021024000230240000052C721
:104C5000000021C3000084CB0063025800600258AA
:104C600068000024632D3E0538B503689A6812F089
:104C7000010F56D1044699682B4A114209D0036EA0
:104C800043F010030366436E43F0010343660120C3
:104C900048E09968254A0A4042F001029A60FFF70D
:104CA000BFFB054623682249224A934218BF8B4224
:104CB0000DD102F50072926802F01F021D498B426D
:104CC00007D01946994207D032B100202AE01A4A8B
:104CD000F1E7A1F58071F5E723681A6812F0010F7A
:104CE0001DD19A6812F0010F05D199680F4A0A4048
:104CF00042F001029A60FFF793FB401B0228EBD9B8
:104D000023681B6813F0010FE6D1236E43F01003F4
:104D10002366636E43F001036366012002E0002016
:104D200000E0002038BD00BF3F000080C0FFFF7FD3
:104D3000002002400021024000630258F8B50446FA
:104D40000E4617460068464A464B984218BF9042A6
:104D50001AD103F500739D6805F01F05806810F0F7
:104D6000040F78D194F85C30012B76D0012384F8BD
:104D70005C30052D18BF002D08D0092D06D000236A
:104D800084F85C30012067E0374BE4E72046FFF70A
:104D90006BFF00285BD1226EA0F60273134043F430
:104DA0008073236623682F4A93423CD01A4693426D
:104DB00000D01DB9236E23F480132366236E13F4F1
:104DC000805F33D0636E23F006036366A36D274ACA
:104DD000DA63A36D264A1A64A36D264ADA6423684F
:104DE0001C221A60002384F85C302268536843F068
:104DF000100353602368204A93421AD0226BD9686B
:104E000021F003010A43DA6021683B463246403113
:104E1000A06D00F0EFFF22689168184B0B4043F043
:104E20000403936018E0A2F58072C0E70023636674
:104E3000CCE794F83810DA6822F0030242EA410223
:104E4000DA602268D36843F00103D360DCE7002313
:104E500084F85C3000E00220F8BD0220FCE700BFCF
:104E600000200240002102400063025879440008FB
:104E70006D4400080145000800600258C0FFFF7F34
:104E800038B504460268936813F0020300D001238A
:104E9000916811F0010F37D0002B37D1936803F0E0
:104EA0000D03012B09D0236E43F010032366636EBC
:104EB00043F001036366012027E09168144B0B4027
:104EC00043F002039360236803221A60FFF7A8FAF5
:104ED000054623689B6813F0010F13D0FFF7A0FA73
:104EE000401B0228F5D923689B6813F0010FF0D00E
:104EF000236E43F010032366636E43F00103636681
:104F0000012002E0002000E0002038BD0020FCE786
:104F1000C0FFFF7F10B5044603684449444A9342EA
:104F200018BF8B421CD1434B9B6813F4403F14BF06
:104F30000123002313B305F023FB6368B3F5003F9F
:104F400016D0B3F5403F17D0B3F5803F10D03A4BA1
:104F500098424ED82268936823F44073936010BD42
:104F6000364B9B6813F4403F14BF01230023E1E755
:104F70001B0CB0FBF3F0EAE78008E8E74FF40020F1
:104F8000002106F05BFC6368B3F5101F2DD022D81A
:104F9000B3F5E01F27D004D9B3F5001FD7D14009DE
:104FA000D5E7B3F5801F0DD006D9B3F5A01F09D002
:104FB000B3F5C01F06D0CAE7B3F5002F02D0B3F592
:104FC000402F04D19B0C5B00B0FBF3F0BFE7B3F5BF
:104FD000802FF7D0BBE7B3F5201F08D0B3F5301F03
:104FE000B5D1000AB3E70009B1E78009AFE7C0090E
:104FF000ADE7134B984207D82268936823F44073B7
:1050000043F480739360AAE70E4B984207D8226856
:10501000936823F4407343F4007393609FE722681E
:10502000936843F44073936099E700BF0020024007
:10503000002102400023024021BCBE000063025850
:1050400041787D0181F0FA0230B583B000230193ED
:10505000002800F067810446036EEBB123689A686C
:1050600012F0005F03D099689C4A0A409A60236856
:105070009A6812F0805F1CD19968994A0A4042F000
:1050800080529A60974B1B689B09974AA2FB0323A7
:105090009B090133019309E0FCF7FEFF00236366DF
:1050A00084F85C30DAE7019B013B0193019B002B04
:1050B000F9D123689A6812F0805F40F0A280226ED6
:1050C00042F010022266626E42F001026266012521
:1050D0009A6812F0040200D00122216E11F0100F24
:1050E00040F01881002A40F01581216E21F4817171
:1050F00041F002012166996811F0010F21D17B482E
:105100007B498B4218BF83420CBF012300237AD115
:10511000816811F0010100D001217548806810F00C
:10512000010000D0012001430CBF0121002141B149
:10513000002B71D06F486368816821F47C110B43A8
:10514000836021686C4B994268D0627EE36B43EACE
:105150004232A3681A4394F8203042EA034294F89A
:105160002030012B74D0A36A23B103F47873E06A72
:1051700003431A43604B99426FD0C8685F4B0340AA
:105180001A43CA6021688B6813F0040300D001231E
:105190008A6812F0080200D00122134322D1564B34
:1051A000994267D0227E236B43EA8232C868544B0F
:1051B00003401343CB6094F84430012B61D0226844
:1051C000136923F0010313612268136923F070430C
:1051D000216C0B4313612268474B9A4202D0204650
:1051E000FFF798FE2369012B6FD02268136B23F021
:1051F0000F031363236E23F0030343F001032366BD
:105200008DE0002564E73C49896811F0010100D078
:10521000012181F001018AE73A488CE7607EE36B67
:1052200043EA4033E0680343A068082808D00C280C
:1052300005D01C280AD0182802D1024600E0082216
:105240001A4394F8203042EA034288E71022F7E735
:10525000636A013B42EA434285E7C8682A4B034040
:105260001A43CA602268136923F04063616B0B43E1
:10527000136187E7227E94F838305B0043EA82327C
:1052800094E721681C4B994210D00A691F4B1340C8
:10529000A26C501EE26C42EA0042206D0243606D37
:1052A0000243134343F001030B618DE70A69184B76
:1052B0001340A26CE06C0243206D0243606D024318
:1052C000134343F001030B617EE721680B6B23F06E
:1052D0000F03E269013A13430B638BE7C0FFFF5FE3
:1052E000C0FFFF6F68000024632D3E0500200240D0
:1052F00000210240002302400060025803C0F0FF7A
:10530000FCBFFFFF006302580740F0FF1EF800FCDF
:105310001FF800FC236E43F0100323660125284686
:1053200003B030BD0125FAE770B582B000230193C8
:1053300090F85C30012B42D004460D4616460123FE
:1053400080F85C30FFF79CFD00282FD1226E1D4BAA
:10535000134043F002032366226891681A4B0B4006
:1053600005F4803506F0804635432B4343F0004377
:10537000936023689B68002B06DB236E23F00303F6
:1053800043F00103236615E0019B01330193019A69
:105390000E4B9A42EDD3236E23F0120343F0100319
:1053A0002366002384F85C30012006E0236E43F07E
:1053B00010032366002384F85C3002B070BD022025
:1053C000FBE700BFFDEEFFFFC0FFFE3F00F8C32577
:1053D00090F85C20012A00F0A18030B49CB0034614
:1053E000012280F85C2000221892199200684C4A31
:1053F000904242D000220092009A002A41D0926846
:1054000012F0040200D00122846814F0040F76D157
:10541000002A74D1424C434A904218BFA04239D16D
:1054200002F50072086800283FD0906820F44040E0
:105430004C68204390601868394D3A4CA04218BF20
:10544000A84229D1A86810F0010000D00120354CF5
:10545000A46814F0010400D0012420430CBF0120F3
:105460000020002856D094682F4820400C68896896
:10547000214308439060002046E002F580720092CC
:10548000BAE71A6E42F020021A66002283F85C2006
:1054900001203CE0254AC5E72548806810F001005E
:1054A00000D0012080F00100DBE7916821F4404149
:1054B000916019681A4C1B48814218BFA14215D14E
:1054C000A16811F0010100D001211648806810F098
:1054D000010000D0012001430CBF01210021D9B1FE
:1054E000906811490140916000200DE010498968E1
:1054F00011F0010100D0012181F00101EFE71A6EE6
:1055000042F020021A660120002283F85C201CB0C1
:1055100030BC70470020F7E70020F5E70220704715
:105520000020024000210240E0F0FFFF006302582B
:1055300000600258A0B110B5044690F8213053B174
:10554000002060626060A060E06020616061012313
:1055500084F8213010BD80F82030FCF71DFEEFE705
:10556000012070470649CB6823F4E0631B041B0C41
:10557000000200F4E0600343024A1A43CA60704725
:1055800000ED00E00000FA0500B5174BDB68C3F33F
:105590000223C3F1070CBCF1040F28BF4FF0040C29
:1055A00003F1040EBEF1060F14D9033B4FF0FF3E8A
:1055B0000EFA0CFC21EA0C0199400EFA03F322EAE0
:1055C00003031943002807DB0901C9B2074B19542B
:1055D0005DF804FB0023E9E700F00F000901C9B200
:1055E000034B1954F4E700BF00ED00E000E400E0D5
:1055F00014ED00E0002807DB00F01F024009012342
:105600009340024A42F82030704700BF00E100E0BA
:105610000138B0F1807F0BD24FF0E0235861054A8A
:10562000F02182F823100020986107221A61704748
:105630000120704700ED00E0F0B4876D0468664E0D
:10564000664DAC4218BFB44242D01835AC423FD090
:105650001835AC423CD01835AC4239D01835AC4284
:1056600036D01835AC4233D01835AC4230D005F5C1
:105670005675AC422CD01835AC4229D01835AC4206
:1056800026D01835AC4223D01835AC4220D018357E
:10569000AC421DD01835AC421AD01835AC4217D0E8
:1056A0004F4DAC4214D01435AC4211D01435AC423D
:1056B0000ED01435AC420BD01435AC4208D01435A2
:1056C000AC4205D01435AC4202D01435AC4207D1FF
:1056D000446E856E6560C46E14B1046F456F65607D
:1056E00004683D4E3D4DAC4218BFB44252D018350F
:1056F000AC424FD01835AC424CD01835AC4249D0F2
:105700001835AC4246D01835AC4243D01835AC42BF
:1057100040D005F55675AC423CD01835AC4239D076
:105720001835AC4236D01835AC4233D01835AC42BF
:1057300030D01835AC422DD01835AC422AD01835AF
:10574000AC4227D0264E274DAC4218BFB44211D0F0
:10575000254DAC420ED01435AC420BD01435AC42C2
:1057600008D01435AC4205D01435AC4202D0143503
:10577000AC4224D1C46D04F01F050124AC407C6010
:10578000046863608368402B20D0036899600368D5
:10579000DA6014E0C46D04F01F0C3F2404FA0CF42A
:1057A000BC6005682C6824F480242C600468636065
:1057B0008368402B05D0036899600368DA60F0BC09
:1057C000704703689A600368D960F8E703689A60D5
:1057D0000368D960F3E700BF1000024028000240D0
:1057E000085402581C540258305402580368274980
:1057F000274A934218BF8B422FD0183293422CD0A5
:105800001832934229D01832934226D0183293424C
:1058100023D01832934220D0183293421DD002F583
:105820005672934219D01832934216D018329342CE
:1058300013D01832934210D0183293420DD0183240
:1058400093420AD01832934207D01832934204D0C0
:1058500023F0FF038365806D704710B4D9B210390F
:105860000C4AA2FB0142C2F302120B4CA25CC265BD
:105870005F2907D9094A1A4004328265806D5DF8B4
:10588000044B7047054A1A408265F7E71000024052
:1058900028000240ABAAAAAA5873010800FCFFFF27
:1058A00083699BB9836A012B0AD0022B02D00BB10A
:1058B00000207047C36A13F0807F2AD10020704710
:1058C000C36AB3F1C07F26D000207047B3F5005FF4
:1058D0000AD0836A022B26D9032B26D1C36A13F080
:1058E000807F24D100207047836A032B03D8DFE830
:1058F00003F01404140A00207047C36A13F0807F79
:105900000DD100207047C36AB3F1C07F09D00020D9
:105910007047012070470120704701207047012027
:105920007047012070470120704700207047012018
:105930007047000003682249224A934218BF8B42F5
:1059400028D01432934225D01432934222D01432FC
:1059500093421FD0143293421CD01432934219D078
:105960001432934216D0DAB2103A1749A1FB021250
:10597000120916491944A8291FD9154B13449B0035
:105980000366144B436602F01F02012303FA02F27E
:1059900082667047DBB2083B0F4AA2FB03230F4A23
:1059A00002EB1312920002660D4A4266C3F304131F
:1059B000012202FA03F3836670470832DDE700BF75
:1059C000085402581C540258ABAAAAAAF0FBFDBF07
:1059D0000082001080080240CDCCCCCC009600168E
:1059E0008058025801794A1E072A2CD830B403681F
:1059F000154D164CA34218BFAB4218D01434A34225
:105A000015D01434A34212D01434A3420FD014344E
:105A1000A3420CD01434A34209D01434A34206D0BC
:105A20000B4B0B449B00C3660A4B036705E00A4B14
:105A30000B449B00C366094B0367012303FA02F280
:105A4000426730BC70477047085402581C540258D3
:105A50003F820010400902403F960016405902580C
:105A600070B50446FEF7DCFC002C00F0B38105465F
:105A700023685349534A934218BF8B420CBF0122FB
:105A8000002250D030318B424DD018318B424AD059
:105A900018318B4247D018318B4244D018318B4299
:105AA00041D018318B423ED001F556718B423AD02D
:105AB00018318B4237D018318B4234D018318B4299
:105AC00031D018318B422ED018318B422BD0183167
:105AD0008B4228D018318B4225D03B493B4A934218
